{
  "contractName": "homeAutomation",
  "abi": [
    {
      "constant": true,
      "inputs": [
        {
          "name": "",
          "type": "uint256"
        }
      ],
      "name": "pinStatus",
      "outputs": [
        {
          "name": "status",
          "type": "uint256"
        }
      ],
      "payable": false,
      "stateMutability": "view",
      "type": "function"
    },
    {
      "inputs": [],
      "payable": false,
      "stateMutability": "nonpayable",
      "type": "constructor"
    },
    {
      "constant": false,
      "inputs": [
        {
          "name": "_pin",
          "type": "uint256"
        },
        {
          "name": "_status",
          "type": "uint256"
        }
      ],
      "name": "control",
      "outputs": [],
      "payable": false,
      "stateMutability": "nonpayable",
      "type": "function"
    }
  ],
  "bytecode": "0x608060405234801561001057600080fd5b50336000806101000a81548173ffffffffffffffffffffffffffffffffffffffff021916908373ffffffffffffffffffffffffffffffffffffffff1602179055506101a9806100606000396000f3fe60806040526004361061004c576000357c0100000000000000000000000000000000000000000000000000000000900463ffffffff168063135cf3d014610051578063438ea768146100a0575b600080fd5b34801561005d57600080fd5b5061008a6004803603602081101561007457600080fd5b81019080803590602001909291905050506100e5565b6040518082815260200191505060405180910390f35b3480156100ac57600080fd5b506100e3600480360360408110156100c357600080fd5b810190808035906020019092919080359060200190929190505050610103565b005b60016020528060005260406000206000915090508060000154905081565b6000809054906101000a900473ffffffffffffffffffffffffffffffffffffffff1673ffffffffffffffffffffffffffffffffffffffff163373ffffffffffffffffffffffffffffffffffffffff1614151561015e57600080fd5b806001600084815260200190815260200160002060000181905550505056fea165627a7a72305820215d268c1a2ca51d728498bd33272d492120997f1c8fe128b8eaca6df44bf32c0029",
  "source": "pragma solidity ^0.5.0;\r\n\r\ncontract homeAutomation{\r\n    \r\n   address owner;\r\n   constructor() public {\r\n       owner=msg.sender;\r\n          }\r\n\r\n   struct pin{\r\n      uint status;\r\n   }\r\n   \r\n   mapping(uint=>pin) public pinStatus;\r\n   \r\n  function control(uint _pin, uint _status)public {\r\n       require(msg.sender==owner);\r\n       pinStatus[_pin].status=_status;\r\n    }\r\n\r\n}\r\n    \r\n",
  "sourcePath": "C:/Users/Salman Dabbakuti/Desktop/rpipin/contracts/pinControl.sol",
  "compiler": {
    "name": "solc",
    "version": "0.5.0+commit.1d4f565a.Emscripten.clang"
  },
  "schemaVersion": "3.0.6",
  "updatedAt": "2019-06-12T11:36:27.860Z",
  "devdoc": {
    "methods": {}
  },
  "userdoc": {
    "methods": {}
  }
}