{
  "contractName": "homeAutomation",
  "abi": [
    {
      "constant": true,
      "inputs": [
        {
          "name": "",
          "type": "uint256"
        }
      ],
      "name": "pinStatus",
      "outputs": [
        {
          "name": "status",
          "type": "uint256"
        }
      ],
      "payable": false,
      "stateMutability": "view",
      "type": "function"
    },
    {
      "inputs": [],
      "payable": false,
      "stateMutability": "nonpayable",
      "type": "constructor"
    },
    {
      "constant": false,
      "inputs": [
        {
          "name": "_pin",
          "type": "uint256"
        },
        {
          "name": "_status",
          "type": "uint256"
        }
      ],
      "name": "control",
      "outputs": [],
      "payable": false,
      "stateMutability": "nonpayable",
      "type": "function"
    }
  ],
  "bytecode": "0x608060405234801561001057600080fd5b50336000806101000a81548173ffffffffffffffffffffffffffffffffffffffff021916908373ffffffffffffffffffffffffffffffffffffffff160217905550610177806100606000396000f3fe608060405234801561001057600080fd5b50600436106100365760003560e01c8063135cf3d01461003b578063438ea7681461007d575b600080fd5b6100676004803603602081101561005157600080fd5b81019080803590602001909291905050506100b5565b6040518082815260200191505060405180910390f35b6100b36004803603604081101561009357600080fd5b8101908080359060200190929190803590602001909291905050506100d3565b005b60016020528060005260406000206000915090508060000154905081565b6000809054906101000a900473ffffffffffffffffffffffffffffffffffffffff1673ffffffffffffffffffffffffffffffffffffffff163373ffffffffffffffffffffffffffffffffffffffff161461012c57600080fd5b806001600084815260200190815260200160002060000181905550505056fea165627a7a72305820ac10fc6205a0fc922d6ad12fef944ca1c1cfa1a7bfa225e6e824049ce59017a40029",
  "source": "pragma solidity ^0.5.0;\r\n\r\ncontract homeAutomation{\r\n    \r\n   address owner;\r\n   constructor() public {\r\n       owner=msg.sender;\r\n          }\r\n\r\n   struct pin{\r\n      uint status;\r\n   }\r\n   \r\n   mapping(uint=>pin) public pinStatus;\r\n   \r\n  function control(uint _pin, uint _status)public {\r\n       require(msg.sender==owner);\r\n       pinStatus[_pin].status=_status;\r\n    }\r\n\r\n}\r\n    \r\n",
  "sourcePath": "C:/Users/Salman Dabbakuti/Downloads/IoT-and-Blockchain/contracts/pinControl.sol",
  "compiler": {
    "name": "solc",
    "version": "0.5.8+commit.23d335f2.Emscripten.clang"
  },
  "schemaVersion": "3.0.11",
  "updatedAt": "2020-05-28T03:10:39.859Z",
  "devdoc": {
    "methods": {}
  },
  "userdoc": {
    "methods": {}
  }
}